:020000040800F2
:100000000028002075270008F7290008FD290008AE
:10001000032A0008092A00080F2A0008000000002F
:10002000000000000000000000000000152A000889
:100030001B2A000800000000212A0008272A0008C7
:10004000F1290008F1290008F1290008F129000828
:10005000F1290008F1290008F1290008F129000818
:10006000F1290008F1290008F1290008F129000808
:10007000F1290008F1290008F1290008F1290008F8
:10008000F1290008F1290008F1290008F1290008E8
:10009000F1290008F1290008F1290008F1290008D8
:1000A000F1290008F1290008F1290008F1290008C8
:1000B000F1290008F129000800000000F1290008DA
:1000C000F12900080000000000000000F1290008EC
:1000D00000000000F1290008F129000800000000DC
:1000E000F1290008F1290008F129000800000000AA
:1000F0000000000000000000000000000000000000
:0C01000000000000000000005FF808F1A3
:1001100080B400AFFEE780B584B000AFF860B9608E
:100120007A603B60FFF7F4FF80B582B000AF786083
:100130007B68084A934204D140F2192001F03BFA4F
:1001400003E040F21A2001F036FA00BF0837BD463E
:1001500080BD00BF0064004080B485B000AF78600F
:10016000084611461A460346FB700B46BB70134601
:100170007B700023FB607B681A687B6822F00202B8
:100180001A607B681A687B6842F001021A604FF6B9
:10019000FF73BB6000BFBB68013BBB60002B06D098
:1001A0007B6804331B6803F00103012BF3D17B68E8
:1001B00004331B6803F00103012B01D00123C0E0CD
:1001C0007B681C331A4600231360FB78002B06D093
:1001D0007B681A687B6842F080021A6005E07B68E1
:1001E0001A687B6822F080021A60BB78002B06D068
:1001F0007B681A687B6842F040021A6005E07B6801
:100200001A687B6822F040021A607B78002B06D0C7
:100210007B681A687B6842F020021A6005E07B6800
:100220001A687B6822F020021A603B7E002B06D001
:100230007B681A687B6842F010021A6005E07B68F0
:100240001A687B6822F010021A603B7F002B06D0F0
:100250007B681A687B6842F008021A6005E07B68D8
:100260001A687B6822F008021A6097F82030002B89
:1002700006D07B681A687B6842F004021A6005E0C9
:100280007B681A687B6822F004021A6097F838309D
:10029000002B08D07B681C331B687A681C3243F043
:1002A0000043136007E07B681C331B687A681C32CC
:1002B00023F00043136097F83430002B08D07B689C
:1002C0001C331B687A681C3243F08043136007E0DC
:1002D0007B681C331B687A681C3223F080431360F0
:1002E0007B681C331A68796AFB6A1943BB6A194335
:1002F0003B6B013BC3F309030B4379681C31134388
:100300000B607B681A687B6822F001021A604FF666
:10031000FF73BB6000BFBB68013BBB60002B06D016
:100320007B6804331B6803F00103012BF3D07B6867
:1003300004331B6803F00103012B01D10123FB608F
:10034000FB6818461437BD4680BC704780B487B040
:1003500000AFF8607B600B46FB721346BB72012254
:10036000FB6802FA03F37B61334B1B68324A43F0AC
:1003700001031360314B1A687B69DB432F4913403B
:100380000B60FB7A002B06D02D4B1A682C497B6939
:1003900013430B6006E02A4B1A687B69DB4328494C
:1003A00013400B60BB7A002B06D0264B1A682549F8
:1003B0007B6913430B6006E0224B1A687B69DB43C1
:1003C000204913400B60FB6803F1006303F6C84348
:1003D000DB001A467B681360FB6803F1006303F6D9
:1003E000C843DB0004331A463B6A13607B6A002B68
:1003F00006D0154B1A6814497B6913430B6006E05D
:10040000114B1A687B69DB430F4913400B6097F867
:100410002830002B05D0094B1A6808497B69134323
:100420000B60054B1B68044A23F00103136000BFF7
:100430001C37BD4680BC7047006600401C6600400B
:100440000C660040046600401466004080B588B029
:1004500004AFF860084611461A4603467B810B46F6
:100460003B811346FB803B891A047B8942EA0301E6
:100470003B8B1A04FB88134397F820200292FA69F9
:10048000019200930B4600220021F868FFF75EFFFF
:1004900000BF1037BD4680BD80B588B004AFF8609E
:1004A000B9607A603B603B7E02933B6801937B6856
:1004B0000093BB6800220121F868FFF747FF00BFE7
:1004C0001037BD4680BD80B588B004AFF8600846DF
:1004D00011461A4603467B810B463B811346FB803F
:1004E0007B891A043B8942EA0301FB881A043B8B8F
:1004F000134397F820200292FA69019200930B4669
:1005000001220021F868FFF721FF00BF1037BD4628
:1005100080BD80B588B004AFF860B9607A603B6098
:100520003B7E02933B6801937B680093BB6801228A
:100530000121F868FFF70AFF00BF1037BD4680BDF4
:1005400080B483B000AF786039607B6814331A6878
:100550007B68143319463B6813430B6000BF0C37AC
:10056000BD4680BC704780B483B000AF786039600E
:100570007B6814331A683B68DB4379681431134095
:100580000B6000BF0C37BD4680BC704780B489B09B
:1005900000AFF860B96011461A460B46FB7113466E
:1005A000BB710023FB610023BB61FB6808331B6840
:1005B00003F08063B3F1806F05D10023FB614FF43A
:1005C000C073BB611EE0FB6808331B6803F0006367
:1005D000B3F1006F05D10123FB614FF4C873BB6118
:1005E00010E0FB6808331B6803F08053B3F1805FB1
:1005F00005D10223FB614FF4D073BB6102E04FF0E1
:10060000FF33FB61FB69B3F1FF3F01D1FB6985E07B
:10061000FB79002B08D0BB68DB00F968BA690A4493
:1006200043F00403136006E0FA68BB6913441A46FA
:10063000BB685B051360BB79002B09D0FA68BB6906
:1006400013441B68F968BA690A4443F00203136053
:10065000FA68BB69134404331B68F968BA690A4431
:10066000043223F00F031360FA68BB6913440433A8
:100670001A6897F8283003F00F03F868B969014445
:10068000043113430B6097F82830013B072B2BD81C
:1006900001A252F823F000BFE3060008DD060008BF
:1006A000D7060008D1060008CB060008C5060008DA
:1006B000BF060008B9060008FB6ADB79FB74FB6A19
:1006C0009B79BB74FB6A5B797B74FB6A1B793B7417
:1006D000FB6ADB78FB75FB6A9B78BB75FB6A5B7812
:1006E0007B75FB6A1B783B7500BFFA68BB691344D6
:1006F00008331A467B691360FA68BB6913440C33EC
:100700001A463B691360FA68BB6913441B68F968B1
:10071000BA690A4443F001031360FB6918462437A1
:10072000BD4680BC704780B483B000AF78600B4694
:10073000FB70FB78002B08D17B680C331B687A6850
:100740000C3243F02003136007E07B6810331B6812
:100750007A68103243F02003136000BF0C37BD46A7
:1007600080BC704780B58AB000AFF8607B600B46F4
:10077000FB721346BB7200237B624C4A07F11403E1
:1007800092E8030083E80300FB7A9B0028333B4494
:1007900053F8143C7B62FA687B6A13441B6803F0CD
:1007A0000403002B0CD03B6B01221A70FA687B6AA1
:1007B00013441B68DB0823F060427B681A600BE07F
:1007C0003B6B00221A70FA687B6A13441B685B0D4E
:1007D000C3F30A027B681A60FA687B6A13441B68D9
:1007E00003F00203002B03D07B6B01221A7002E09E
:1007F0007B6B00221A70FA687B6A134404331B680F
:100800001B0ADAB2BB6B1A70FA687B6A13440433B2
:100810001B68DBB203F00F03DAB2FB6B1A707B6C60
:10082000002B08D0FA687B6A134404331B681B0C46
:100830009AB27B6C1A80FA687B6A134408331B688F
:100840003B62FA687B6A13440C331B68FB6197F8C0
:1008500020203B6C1A703B6C013397F821201A70F2
:100860003B6C023397F822201A703B6C033397F8E5
:1008700023201A703B6C04333A7F1A703B6C0533AB
:100880007A7F1A703B6C0633BA7F1A703B6C073361
:10089000FA7F1A70BB7A002B04D0FB7A1946F868ED
:1008A000FFF741FF00BF2837BD4680BD2C2A000856
:1008B00080B483B000AF78607B6808331B6803F0B6
:1008C000E053002B14BF01230023DBB218460C3782
:1008D000BD4680BC704780B487B000AFF860B96097
:1008E0003B601346FB71FB68164A1A60FB68BA68E6
:1008F0005A60FB68FA791A72FB6800225A72FB6828
:1009000000229A72FB6897F82020DA720023FB75A8
:100910000BE0FB7D3A681A44FB7D1178FA681344BA
:100920000A461A73FB7D0133FB75FA7D97F8203078
:100930009A42EED3FB6800229A8200BF1C37BD4664
:1009400080BC70470064004080B487B000AF78601E
:100950000B46FB707B685D4A1A6000237B610023B5
:10096000FB745B4B1B6803F00303002B05D00023D3
:10097000FB744FF4D8737B610AE0564B1B6803F09D
:100980000303002B04D00123FB744FF4E0737B615D
:100990007B681A687B6913441B6803F00403002B0F
:1009A0000DD07B6801221A727B681A687B69134438
:1009B0001B68DB0823F060427B685A600CE07B68B0
:1009C00000221A727B681A687B6913441B685B0DEE
:1009D000C3F30A027B685A607B681A687B69134418
:1009E0001B6803F00203002B03D07B6801225A72BC
:1009F00002E07B6800225A727B681A687B691344A4
:100A000004331B681B0ADAB27B689A727B681A6827
:100A10007B69134404331B68DBB203F00F03DAB2C3
:100A20007B68DA727B689B8A002B09D07B681A6826
:100A30007B69134404331B681B0C9AB27B689A824F
:100A40007B681A687B69134408331B68FB607B680A
:100A50001A687B6913440C331B68BB603A7B7B6864
:100A60001A737A7B7B685A73BA7B7B689A73FA7BBA
:100A70007B68DA733A7A7B681A747A7A7B685A747C
:100A8000BA7A7B689A74FA7A7B68DA74FB78002BFE
:100A900017D0FB7C002B0AD07B681B6810331B68C7
:100AA0007A681268103243F02003136009E07B6813
:100AB0001B680C331B687A6812680C3243F0200301
:100AC000136000BF1C37BD4680BC70470064004007
:100AD0000C6400401064004080B586B000AF7860C0
:100AE00000237B6100233B617B681B6808331B6824
:100AF00003F08063B3F1806F05D100237B614FF475
:100B0000C0733B6120E07B681B6808331B6803F0FF
:100B10000063B3F1006F05D101237B614FF4C8730B
:100B20003B6111E07B681B6808331B6803F080534E
:100B3000B3F1805F05D102237B614FF4D0733B6139
:100B400002E04FF0FF337B617B69B3F1FF3F01D1DE
:100B50007B69A0E07B681B7A002B0AD07B685B680E
:100B6000DB007A6811683A690A4443F004031360B1
:100B700007E07B685B687A6811683A690A445B053C
:100B800013607B685B7A002B0BD07B681A683B692B
:100B900013441B687A6811683A690A4443F00203F7
:100BA00013607B681A683B69134404331B687A68D6
:100BB00011683A690A44043223F00F0313607B681A
:100BC0001A683B69134404331A687B68DB7A03F0C4
:100BD0000F037968086839690144043113430B60D5
:100BE0007B68DB7A013B072B2AD801A252F823F05D
:100BF0003B0C0008350C00082F0C0008290C0008DD
:100C0000230C00081D0C0008170C0008110C00082C
:100C10007B68DB7CFB727B689B7CBB727B685B7C4C
:100C20007B727B681B7C3B727B68DB7BFB737B6826
:100C30009B7BBB737B685B7B7B737B681B7B3B73A2
:100C400000BF7B681A683B69134408331A46FB6887
:100C500013607B681A683B6913440C331A46BB68FF
:100C600013607B681A683B6913441B687A681168D3
:100C70003A690A4443F0010313607B681B68083338
:100C80001B6803F0083323F00063002B02D0002020
:100C900000F005F87B6918461837BD4680BD80B462
:100CA00083B000AF0346FB7100BF0C37BD4680BC6C
:100CB000704700BF80B400AF034B1B689BB218465F
:100CC000BD4680BC704700BFE0F7FF1F80B483B013
:100CD00000AF78600A497B681A1D7A600A681A605A
:100CE00008497B681A1D7A600A681A60064B1A6800
:100CF0007B681A6000BF0C37BD4680BC704700BFE0
:100D0000F0F7FF1FECF7FF1FE8F7FF1F80B400AFFD
:100D1000044B1B68034A43F00403136000BFBD4645
:100D200080BC70470C20024080B400AF044B1B68AD
:100D3000034A43F01003136000BFBD4680BC7047F8
:100D40000C20024080B500AF00BF00F001F903465F
:100D500003F00103012BF8D000BF00BF80BD80B5B8
:100D600082B000AF786039603B689BB21946786802
:100D700000F00CF97B689A1C3B681B0C9BB219466F
:100D8000104600F003F900BF0837BD4680BD80B5AE
:100D900000AFFFF7D7FF0F4B1B6803F40073002B66
:100DA00001D100F0AFFA0B4B1B680A4A43F0200355
:100DB0001360084B1B68074A43F040031360FFF7BA
:100DC000C1FF044B1B68034A23F02003136000BFDC
:100DD00080BD00BF1020024080B582B000AF7860B7
:100DE0000B467B80FFF7AEFF0E4B1B6803F40073CE
:100DF000002B01D100F086FA0A4B1B68094A43F028
:100E0000100313607B687A881A80FFF79BFF054BFD
:100E10001B68044A23F01003136000BF0837BD4667
:100E200080BD00BF1020024080B400AF044B1B689F
:100E3000034A43F00803136000BFBD4680BC7047FF
:100E40000020024080B400AF044B1B68034A23F02B
:100E50000803136000BFBD4680BC704700200240FD
:100E600080B500AFFFF726FF0346B3F5007F0BD92F
:100E7000064B1B68054A43F080031360044B054A88
:100E80001A60034B044A1A6000BF80BD5020024024
:100E90004420024023016745AB89EFCD80B400AF09
:100EA000044B1B68034A43F08003136000BFBD4638
:100EB00080BC70475020024080B500AFFFF7FAFEBB
:100EC0000346B3F5007F05D9034B1B68024A43F084
:100ED0000403136000BF80BD4C20024080B500AF0A
:100EE000FFF7E8FE0346B3F5007F05D9034B1B6807
:100EF000024A43F02003136000BF80BD4C20024033
:100F000080B500AFFFF7D6FE0346B3F5007F05D9E5
:100F1000034B1B68024A43F01003136000BF80BDFF
:100F20004C20024080B500AFFFF7F0FE00F01CFA45
:100F3000FFF7FAFEFFF7BEFE0346B3F5007F05D9C3
:100F4000FFF7BAFFFFF7CAFFFFF7DAFF00BF80BD68
:100F500080B582B000AF0B4B1B6803F035037B609C
:100F6000FFF7A8FE0346B3F5007F06D9064B1B68C2
:100F700003F035037A6813437B607B6818460837B3
:100F8000BD4680BD0C2002404C20024080B582B09E
:100F900000AF78600B467B80FFF7D4FEFFF78AFE38
:100FA0000346B3F5007F0AD97B68184A934206D9F5
:100FB000174B1B68164A43F00103136005E0154BFD
:100FC0001B68144A43F0010313607B687A881A8017
:100FD000FFF7B8FEFFF76EFE0346B3F5007F0AD9B0
:100FE0007B680A4A934206D9094B1B68084A23F0DA
:100FF0000103136006E0074B1B68064A23F0010358
:10100000136000BF00BF0837BD4680BDFFFF070863
:10101000502002401020024080B582B000AF7860BE
:10102000FFF790FEFFF746FE0346B3F5007F13D9A6
:101030007B68204A93420FD91F4B1B681E4A43F01E
:10104000020313601D4A7B6813601B4B1B681A4A1E
:1010500043F0400313600EE0194B1B68184A43F03D
:1010600002031360174A7B681360154B1B68144A10
:1010700043F040031360FFF765FEFFF71BFE0346D6
:10108000B3F5007F0AD97B680A4A934206D90A4B16
:101090001B68094A23F00203136006E0084B1B6833
:1010A000074A23F00203136000BF00BF0837BD46A4
:1010B00080BD00BFFFFF07085020024054200240BF
:1010C000102002401420024080B500AFFFF73AFE26
:1010D000144B1B68134A43F004031360114B1B6845
:1010E000104A43F040031360FFF72CFE0D4B1B68C2
:1010F0000C4A23F0040313600B4B1B680A4A43F0AD
:1011000004031360084B1B68074A43F04003136055
:10111000FFF718FE044B1B68034A23F00403136017
:1011200000BF80BD102002405020024080B489B032
:1011300000AF7860084611461A460346FB700B461E
:10114000BB7013463B8000237B820023BB610023DE
:101150007B610023FB607B681B68BB617B68043399
:101160001B687B610023FB8344E03A88FB8B42FAD7
:1011700003F303F00103002B38D0FB8B072B03D8BC
:10118000FB8B9B009BB204E0FB8B083B9BB29B005C
:101190009BB27B82FB8B072B01D8BB6900E07B698C
:1011A000FB607B8A0F2202FA03F3DB431A46FB68DB
:1011B0001340FB60FA787B8A9A40B9787B8A0233C5
:1011C00001FA03F313431A46FB681343FB60FB8BDE
:1011D000072B01D8FB6800E0BB69BB61FB8B072BC9
:1011E00001D9FB6800E07B697B6100E000BFFB8BFD
:1011F0000133FB83FB8B0F2BB7D97B68BA691A606D
:101200007B6804331A467B69136000BF2437BD46F0
:1012100080BC704780B483B000AF03460A46FB71C0
:101220001346BB71FA79BB791343DBB263F07F03DA
:10123000DAB2034B1A6000BF0C37BD4680BC704762
:101240000000014080B485B000AF78603960084B81
:101250001B6823F0E063FB60FA687B681A4304496B
:101260003B6813430B6000BF1437BD4680BC70471A
:101270000400014080B483B000AF7860054B1A6869
:1012800004497B6813430B6000BF0C37BD4680BC2C
:10129000704700BF1C00014080B400AF044B1B68C6
:1012A000034A43F01003136000BFBD4680BC704783
:1012B0000020024080B400AF044B1B68034A23F0B7
:1012C0001003136000BFBD4680BC70470020024081
:1012D00080B485B000AF7860094B1B68FB60FB6889
:1012E00023F00703FB60FA687B681343FB60044A42
:1012F000FB68136000BF1437BD4680BC704700BF59
:101300000020024080B400AF044B054A1A60034B32
:10131000044A1A6000BFBD4680BC704708200240E6
:1013200023016745AB89EFCD80B400AF044B054A7C
:101330001A60034B044A1A6000BFBD4680BC704768
:101340000420024023016745AB89EFCD80B400AF94
:10135000044B1B68034A43F08003136000BFBD4683
:1013600080BC70471020024080B400AF044B1B6863
:10137000034A43F02003136000BFBD4680BC7047A2
:101380000C20024080B483B000AF78600B467B80B5
:101390007B6810331A467B88136000BF0C37BD464C
:1013A00080BC704780B483B000AF78600B467B8010
:1013B0007B881A047B6810331A6000BF0C37BD4667
:1013C00080BC704780B582B000AF78600B467B80F0
:1013D000786800F024F803461A467B8813409BB2D5
:1013E00018460837BD4680BD80B485B000AF786030
:1013F0000B467B807B680C331B68FB607A88FB683C
:1014000013401A04FB68D9437B880B40796810317C
:1014100013430B6000BF1437BD4680BC704780B4D7
:1014200083B000AF78607B6808331B689BB21846B6
:101430000C37BD4680BC704780B483B000AF786085
:101440000B467B807B680C331A467B88136000BF99
:101450000C37BD4680BC704780B485B000AF786063
:101460000B467B807B8843F480327B6818331A609C
:101470007B6818331A467B8813607B8843F480327C
:101480007B6818331A607B6818331B68FB607B68C5
:1014900018331B68FB6000BF1437BD4680BC704723
:1014A00080B483B000AF786039607B681A683B68AD
:1014B0001A437B681A6000BF0C37BD4680BC70477A
:1014C00080B483B000AF786039607B681A683B688D
:1014D000DB431A407B681A6000BF0C37BD4680BCF6
:1014E000704780B483B000AF786039607B681A6859
:1014F0003B681A437B681A6000BF0C37BD4680BC4E
:10150000704780B483B000AF786039607B681A6838
:101510003B68DB431A407B681A6000BF0C37BD464E
:1015200080BC704780B483B000AF0346FB80FB886B
:101530005B099BB203F1804303F504331A68FB880F
:1015400003F01F03012101FA03F31846FB885B092E
:101550009BB203F1804303F50433194642EA0003CA
:101560000B6000BF0C37BD4680BC704780B483B0B1
:1015700000AF0346FB80FB885B099BB203F180430D
:1015800003F504331A68FB8803F01F03012101FAF5
:1015900003F3DB431846FB885B099BB203F18043EE
:1015A00003F50433194602EA00030B6000BF0C3751
:1015B000BD4680BC704780B483B000AF0346FB805B
:1015C000FB885B099BB203F1804303F504331A687F
:1015D000FB8803F01F03012101FA03F31846FB887F
:1015E0005B099BB203F1804303F50433194642EAD9
:1015F00000030B60FB885B099BB203F1804303F59A
:1016000004331A68FB8803F01F03012101FA03F376
:10161000DB431846FB885B099BB203F1804303F56B
:101620000433194602EA00030B6000BF0C37BD46C5
:1016300080BC704780B483B000AF0346FB80FB885A
:101640005B099BB203F1804303F504331A68FB88FE
:1016500003F01F03012101FA03F31846FB885B091D
:101660009BB203F1804303F50433194642EA0003B9
:101670000B6000BF0C37BD4680BC704780B483B0A0
:1016800000AF0346FB80FB885B099BB203F18043FC
:1016900003F504331A68FB8803F01F03012101FAE4
:1016A00003F3DB431846FB885B099BB203F18043DD
:1016B00003F50433194602EA00030B6000BF0C3740
:1016C000BD4680BC704780B483B000AF7860074BE4
:1016D0001B6823F070627B681B06044913430B6090
:1016E00000BF0C37BD4680BC704700BF04100240ED
:1016F00080B483B000AF0346FB71FB79032B02D0AB
:10170000052B07D00DE0094B1B68084A43F48023E2
:10171000136006E0064B1B68054A43F004031360A0
:1017200000BF00BF0C37BD4680BC704700100240B0
:101730002010024080B483B000AF0346FB71FB79F8
:10174000032B02D0052B07D00DE0094B1B68084A7C
:1017500023F48023136006E0064B1B68054A23F040
:101760000403136000BF00BF0C37BD4680BC704748
:10177000001002402010024080B483B000AF034646
:10178000FB71FB79072B01D801230FE0FB790B2BB1
:1017900006D8FB79073B012202FA03F39BB205E06E
:1017A000FB79063B012202FA03F39BB218460C3781
:1017B000BD4680BC704700BF80B483B000AF034615
:1017C000FB71FB79062B42D801A252F823F000BF2F
:1017D000ED170008FB170008091800081718000883
:1017E0002518000833180008411800081A4B1B6818
:1017F000194A43F48013136029E0174B1B68164AFB
:1018000043F40013136022E0134B1B68124A43F4A5
:10181000800313601BE0104B1B680F4A43F4002346
:10182000136014E00C4B1B680B4A43F480231360D5
:101830000DE0094B1B68084A43F40033136006E0CF
:10184000054B1B68044A43F48033136000BF00BF9C
:101850000C37BD4680BC70470810024080B483B08E
:1018600000AF0346FB71FB79062B42D801A252F868
:1018700023F000BF911800089F180008AD18000859
:10188000BB180008C9180008D7180008E518000898
:101890001A4B1B68194A43F48053136029E0174B15
:1018A0001B68164A43F40053136022E0134B1B6875
:1018B000124A43F4804313601BE0104B1B680F4A2D
:1018C00043F40063136014E00C4B1B680B4A43F4B1
:1018D000806313600DE0094B1B68084A43F40073F2
:1018E000136006E0054B1B68044A43F480731360E1
:1018F00000BF00BF0C37BD4680BC704708100240D7
:1019000080B483B000AF0346FB71FB79062B42D84D
:1019100001A252F823F000BF35190008431900084E
:10192000511900085F1900086D1900087B1900089B
:10193000891900081A4B1B68194A23F48053136055
:1019400029E0174B1B68164A23F40053136022E06A
:10195000134B1B68124A23F4804313601BE0104BA7
:101960001B680F4A23F40063136014E00C4B1B68E0
:101970000B4A23F4806313600DE0094B1B68084A8F
:1019800023F40073136006E0054B1B68044A23F43C
:101990008073136000BF00BF0C37BD4680BC70472A
:1019A0000810024080B582B000AF0346FB71FB799E
:1019B000062B57D801A252F823F000BFD91900080E
:1019C000ED190008011A0008151A0008291A000864
:1019D0003D1A0008511A0008254B1B6803F010033C
:1019E000002B14BF01230023DBB23DE0204B1B681A
:1019F00003F02003002B14BF01230023DBB233E0EC
:101A00001B4B1B6803F04003002B14BF0123002372
:101A1000DBB229E0164B1B6803F00803002B14BF50
:101A200001230023DBB21FE0114B1B6803F004030A
:101A3000002B14BF01230023DBB215E00C4B1B6805
:101A400003F00203002B14BF01230023DBB20BE0E1
:101A5000074B1B6803F00103002B14BF0123002375
:101A6000DBB201E0FEF754FB18460837BD4680BDE7
:101A70000810024080B400AF044B1B68034A43F4D3
:101A80000003136000BFBD4680BC704708100240D1
:101A900080B400AF064B1B6803F08003002B14BF1B
:101AA00001230023DBB21846BD4680BC704700BF4F
:101AB0000810024080B483B000AF0346FB71FB798D
:101AC000062B57D801A252F823F000BFE91A0008EC
:101AD000FD1A0008111B0008251B0008391B00080F
:101AE0004D1B0008611B0008254B1B6803F00073A9
:101AF000002B14BF01230023DBB23CE0204B1B680A
:101B000003F00063002B14BF01230023DBB232E09B
:101B10001B4B1B6803F00053002B14BF0123002351
:101B2000DBB228E0164B1B6803F40033002B14BF14
:101B300001230023DBB21EE0114B1B6803F00203FC
:101B4000002B14BF01230023DBB214E00D4B1B68F4
:101B500003F00203002B14BF01230023DBB20AE0D1
:101B6000094B1B6803F00203002B14BF0123002361
:101B7000DBB200E0002318460C37BD4680BC70473E
:101B800000100240201002402410024080B582B0B4
:101B900000AF0346FB7100BFFB791846FFF78AFFD1
:101BA000034683F00103DBB2002BF5D100BF00BF79
:101BB0000837BD4680BD80B483B000AF0346FB71DB
:101BC000FB79062B41D801A252F823F0E91B00084B
:101BD000F71B0008051C0008131C0008211C000846
:101BE0002F1C00083D1C00081A4B1B68194A43F0C3
:101BF0008073136029E0174B1B68164A43F080631B
:101C0000136022E0134B1B68124A43F080531360A9
:101C10001BE0104B1B680F4A43F48033136014E041
:101C20000C4B1B680B4A43F0010313600DE00A4B99
:101C30001B68094A43F00103136006E0074B1B6869
:101C4000064A43F00103136000BF00BF0C37BD46D6
:101C500080BC704700100240201002402410024057
:101C600080B483B000AF0346FB71FB79062B42D8EA
:101C700001A252F823F000BF951C0008A31C000825
:101C8000B11C0008BF1C0008CD1C0008DB1C0008AC
:101C9000E91C00081A4B1B68194A23F08073136073
:101CA00029E0174B1B68164A23F08063136022E07B
:101CB000134B1B68124A23F0805313601BE0104B38
:101CC0001B680F4A23F48033136014E00C4B1B682D
:101CD0000B4A23F0010313600DE00A4B1B68094A0D
:101CE00023F00103136006E0074B1B68064A23F04C
:101CF0000103136000BF00BF0C37BD4680BC7047B6
:101D000000100240201002402410024080B400AFB6
:101D1000044B1B68034A43F40023136000BFBD4615
:101D200080BC70470010024080B400AF044B1B68B9
:101D3000034A23F40023136000BFBD4680BC7047F4
:101D40000010024080B483B000AF7860064B1B687F
:101D500023F0030204497B6813430B6000BF0C3778
:101D6000BD4680BC704700BF0410024080B483B001
:101D700000AF7860064B1B6823F470127B689B04ED
:101D8000034913430B6000BF0C37BD4680BC70474E
:101D90000410024080B483B000AF7860064B1B682B
:101DA00023F470627B681B02034913430B6000BF7E
:101DB0000C37BD4680BC70472C10024080B483B005
:101DC00000AF7860064B1B6823F470427B681B03EE
:101DD000034913430B6000BF0C37BD4680BC7047FE
:101DE0002C10024080B483B000AF7860064B1B68B3
:101DF00023F480327B681B04034913430B6000BF4C
:101E00000C37BD4680BC70470410024080B483B0DC
:101E100000AF7860064B1B6823F400327B685B04DC
:101E2000034913430B6000BF0C37BD4680BC7047AD
:101E30000410024080B400AF034B1B6803F400435E
:101E40001846BD4680BC70472010024080B400AFE9
:101E5000044B1B68034A43F40043136000BFBD46B4
:101E600080BC70472010024080B485B000AF0346AC
:101E7000FB71FB79062B6CD801A252F823F000BF4E
:101E8000451F0008451F0008451F00080D1F0008DA
:101E9000451F00089D1E0008D51E00082F4B1B681B
:101EA0002E4A43F00103136000BF2C4B1B6803F064
:101EB0000203FB60FB68002BF7D0284B1B68274A06
:101EC00023F440731360254B1B68244A43F480734A
:101ED00013603EE0224B1B68214A43F0010313606C
:101EE00000BF1F4B1B6803F00203FB60FB68002B65
:101EF000F7D01A4B1B68194A23F440731360174B31
:101F00001B68164A43F40073136022E0154B1B68EC
:101F1000144A43F48033136000BF124B1B6803F470
:101F20000033FB60FB68002BF7D00C4B1B680B4A9F
:101F300023F440731360094B1B68084A43F4407351
:101F4000136006E0054B1B68044A23F440731360DA
:101F500000BF00BF1437BD4680BC70472010024050
:101F6000241002400010024080B483B000AF7860BB
:101F7000064B1B6823F440427B689B0303491343D1
:101F80000B6000BF0C37BD4680BC70470410024098
:101F900080B483B000AF7860064B1B6823F46052B6
:101FA0007B68DB02034913430B6000BF0C37BD465F
:101FB00080BC70470410024080B483B000AF7860EA
:101FC000064B1B6823F4E0627B681B020349134342
:101FD0000B6000BF0C37BD4680BC70470410024048
:101FE00080B483B000AF7860064B1B6823F0F0022A
:101FF0007B681B01034913430B6000BF0C37BD46D0
:1020000080BC70470410024080B483B000AF786099
:102010007B68002B06D0094B1B68084A43F48003F9
:10202000136005E0054B1B68044A23F4800313602A
:1020300000BF0C37BD4680BC704700BF0410024093
:1020400080B483B000AF7860064B1B6823F00F02AA
:1020500004497B6813430B6000BF0C37BD4680BC4E
:10206000704700BF2C10024080B483B000AF78608E
:10207000064B1B6823F0F0027B681B0103491343E6
:102080000B6000BF0C37BD4680BC70472C1002406F
:1020900080B483B000AF78607B68002B06D0094B1A
:1020A0001B68084A43F48033136005E0054B1B6846
:1020B000044A23F48033136000BF0C37BD4680BC54
:1020C000704700BF2C10024080B400AF044B1B6867
:1020D0009B0803F003031846BD4680BC704700BF51
:1020E0000410024080B500AF0420FFF764FD042017
:1020F000FFF74CFD0020FFF725FE0020FFF770FFE3
:102100000320FFF731FF0420FFF756FF0020FFF701
:102110003FFF0220FFF7DCF80E20FFF727FE00202C
:10212000FFF760FE0020FFF746FD0020FFF72EFDC1
:102130000220FFF707FE054B054A1A60054B064AC9
:102140001A60064B024A1A6000BF80BD08000020DA
:102150000090D003000000200048E80104000020A7
:1021600080B500AF0420FFF726FD0420FFF70EFD29
:102170000020FFF7E7FD0020FFF732FF0320FFF705
:10218000F3FE0420FFF718FF0020FFF701FF0120F6
:10219000FFF73AFF0120FFF79BF80A20FFF7E6FD63
:1021A0000020FFF71FFE0020FFF705FD0020FFF7CE
:1021B000EDFC0220FFF7C6FD054B064A1A60064BF0
:1021C000064A1A60064B034A1A6000BF80BD00BF72
:1021D00008000020006CDC020000002000366E01C8
:1021E0000400002080B500AF0420FFF7E4FC0420C9
:1021F000FFF7CCFC0020FFF7A5FD0020FFF7F0FE65
:102200000020FFF7B1FE0020FFF7D6FE0020FFF709
:10221000BFFE0020FFF75CF80420FFF7A7FD0020B9
:10222000FFF7E0FD0020FFF7C6FC0020FFF7AEFC43
:102230000220FFF787FD054B054A1A60054B044A4B
:102240001A60054B024A1A6000BF80BD08000020DA
:1022500000366E01000000200400002080B500AFB1
:102260000420FFF7A8FC0420FFF790FC0020FFF7F4
:1022700069FD0320FFF79FFC0320FFF787FC012087
:10228000FFF760FD0020FFF7ABFE0020FFF76CFEBC
:102290000020FFF791FE0020FFF77AFE0020FFF7F5
:1022A00017F80120FFF762FD0120FFF79BFD0020DA
:1022B000FFF7ACFD0020FFF77EFC0020FFF766FC77
:1022C0000220FFF73FFD054B054A1A60054B044A03
:1022D0001A60054B024A1A6000BF80BD080000204A
:1022E00000366E01000000200400002080B500AF21
:1022F0000420FFF760FC0420FFF748FC0020FFF7F4
:1023000021FD0320FFF757FC0320FFF73FFC0120CE
:10231000FFF718FD0020FFF763FE0320FFF724FE00
:102320000420FFF749FE0020FFF732FE0220FEF7EF
:10233000CFFF0720FFF71AFD0120FFF753FD002014
:10234000FFF764FD0020FFF736FC0020FFF71EFCBE
:102350000220FFF7F7FC054B054A1A60054B064AB9
:102360001A60064B024A1A6000BF80BD08000020B8
:1023700000A24A04000000200051250204000020B1
:1023800080B500AF0420FFF716FC0420FFF7FEFB2A
:102390000020FFF7D7FC0320FFF70DFC0320FFF719
:1023A000F5FB0120FFF7CEFC0020FFF719FE02200D
:1023B000FFF7DAFD0420FFF7FFFD0020FFF7E8FD3F
:1023C0000220FEF785FF0420FFF7D0FC0120FFF775
:1023D00009FD0020FFF71AFD0020FFF7ECFB0020AD
:1023E000FFF7D4FB0220FFF7ADFC054B054A1A604E
:1023F000054B064A1A60064B024A1A6000BF80BDB0
:102400000800002000A24A0400000020005125021C
:102410000400002080B500AF0420FFF7CCFB0420AF
:10242000FFF7B4FB0020FFF78DFC0320FFF7C3FB91
:102430000320FFF7ABFB0120FFF784FC0020FFF730
:10244000CFFD0220FFF790FD0420FFF7B5FD00202F
:10245000FFF79EFD0220FEF73BFF0720FFF786FCFB
:102460000120FFF7BFFC0120FFF7D0FC0020FFF7A1
:10247000A2FB0020FFF78AFB0220FFF763FC054B5D
:10248000054A1A60054B064A1A60064B024A1A6052
:1024900000BF80BD0800002000A24A040000002008
:1024A000005125020400002080B500AF0320FFF793
:1024B00082FB0320FFF76AFB0120FFF743FC0220A9
:1024C000FEF706FF0020FFF78BFD0220FFF74CFD13
:1024D0000420FFF771FD0020FFF75AFD0420FFF7ED
:1024E000C3FD0620FFF756FC0120FFF764FB012027
:1024F000FFF74CFB0020FFF789FC0120FFF7C8FD28
:102500000420FFF79DFD0720FFF730FC0120FFF7B7
:1025100069FC0020FFF778FD0020FFF74CFB00204E
:10252000FFF734FB0220FFF70DFC054B054A1A604C
:10253000054B064A1A60064B024A1A6000BF80BD6E
:102540000800002000A24A040000002000512502DB
:102550000400002080B582B000AF78607B685B78B3
:10256000012B06D10320FFF726FB0320FFF70EFB0C
:1025700005E00420FFF71FFB0420FFF707FB7B6843
:102580009B781846FFF72CFD7B68DB781846FFF731
:1025900013FD7B681B791846FFF7FAFC7B685B79B3
:1025A0001846FFF7E1FC7B681B7B1846FFF72CFD04
:1025B0007B689B791846FEF78BFE7B681B78184674
:1025C000FFF7D4FB7B685B781846FFF70BFC7B6852
:1025D000DB79012B05D97B68DB791846FFF730FDE5
:1025E00004E07B68DB791846FFF710FC7B681B7AF8
:1025F000002B04D07B681B7A1846FFF749FD7B68E7
:102600005B7A002B04D07B685B7A1846FFF72CFDC1
:102610007B689B7A002B0AD07B689B7A1846FFF771
:10262000B9FB0120FFF7C7FA0120FFF7AFFA7B687B
:10263000DB7A002B0AD07B68DB7A1846FFF7BEFBFB
:102640000220FFF7B8FA0220FFF7A0FA0020FFF7F8
:10265000B2FA0020FFF79AFA0220FFF773FB7B68BB
:102660001B69074A13607B685B69064A13607B68D5
:102670009B69054A136000BF0837BD4680BD00BF97
:1026800008000020000000200400002080B400AFFB
:10269000074B1B68064A43F480331360044B1B68E6
:1026A000034A23F48033136000BFBD4680BC7047EB
:1026B0002010024080B483B000AF78607B68064A87
:1026C000934202D1054B1B6801E0054B1B6818467D
:1026D0000C37BD4680BC7047003801400400002024
:1026E0000000002080B485B000AF78607B68B3F153
:1026F000804F14D37B68144A934210D8134B1B6845
:102700001B0ADBB203F00703FB73FB7B002B03D038
:102710000F4B1B685B0012E00D4B1B680FE00B4B6F
:102720001B68DB0ADBB203F00703BB73BB7B002B28
:1027300003D0084B1B685B0001E0064B1B68184682
:102740001437BD4680BC7047002000400410024092
:10275000000000200400002080B483B000AF786047
:10276000034B1B6818460C37BD4680BC704700BF42
:102770000000002080B500AF00F004F800F06EF813
:1027800000BF80BD80B487B000AF134B7B61134B9B
:102790003B61134BBB60134BFB60134B7B6007E04B
:1027A0007A69131D7B613B69191D396112681A60D2
:1027B0003A69BB689A42F3D104E0FB681A1DFA60DB
:1027C00000221A60FA687B689A42F6D100BF00BF07
:1027D0001C37BD4680BC70471C2B00080000002041
:1027E0003C0000203C0000204800002080B483B062
:1027F00000AF786005E07B68013B7B60054A7B6841
:1028000013607B68002BF6D100BF00BF0C37BD46BC
:1028100080BC70473C00002080B584B000AF0B4BFB
:10282000FB60FB681B68BB60BB687B60084B094AA8
:102830001A60094B3B603B6883F3088800BF7B68E4
:10284000984700BF1037BD4680BD00BF0420000878
:1028500008ED00E0002000080028002080B59AB0B4
:102860000AAF5B4B03221A705A4A3B4692E80300B8
:1028700083E803004FF44170FEF754FE40F202304B
:10288000FEF750FE4FF44070FEF74CFE40F29930D8
:10289000FEF748FE00BF002308930023079301239F
:1028A00006934FF4E00305934FF4C02304930123F0
:1028B000039300230293002301930023009300233A
:1028C000002200214448FDF747FC0346012BE2D0DB
:1028D0004FF40053002202214048FEF727FC4FF43A
:1028E0008053022201213E48FEF720FC4FF4006392
:1028F000022200213A48FEF719FC3A4B1B68BB63E1
:10290000384ABB6B43F400631360364B4FF40062EC
:102910001A600123029300230193002300930023F4
:10292000002201210020FDF711FD294B1B78042B0B
:1029300035D801A252F823F09F2900089F290008EA
:102940004D290008792900089F290008264B1B689B
:1029500003F00303002B05D1244B1B6803F0030392
:10296000002B05D007F1080301211846FDF7ECFF05
:10297000174B03221A7013E03B4607F12000082290
:10298000009200224FF48E61FDF7A5FF07F12003AE
:102990001846FEF7A1F80E4B02221A7000E000BFA5
:1029A0004FF400510D48FEF71FFD002387F83F301C
:1029B00008E042F21070FFF719FF97F83F3001333B
:1029C00087F83F3097F83F30092BF2D9ADE700BFC9
:1029D00044000020142B0008006400400010014057
:1029E000000801400C0801400C64004010640040E5
:1029F00080B400AFFEE780B400AFFEE780B400AF64
:102A0000FEE780B400AFFEE780B400AFFEE780B41D
:102A100000AFFEE780B400AFFEE780B400AFFEE792
:102A200080B400AFFEE780B400AFFEE7B001000065
:102A3000C0010000040100040002020000000000C8
:102A40000000000000A24A040051250200A24A042E
:102A50000701000400020201000000000000000065
:102A600000A24A040051250200A24A040701000402
:102A700000020204010406000000000000A24A0453
:102A80000051250200A24A040101000000000000DC
:102A9000000000000000000000366E0100366E01EC
:102AA00000366E0107010004000302000000000070
:102AB0000000000000A24A040051250200A24A04BE
:102AC0000400000000000000000000000000000002
:102AD00000366E0100366E0100366E010A000004F9
:102AE000000301000000000001000000006CDC0297
:102AF00000366E01006CDC020E00000400030200D0
:102B000000000000000000000090D0030048E80131
:0C2B10000090D003010203040506070832
:102B1C0000127A0000127A0000127A00046400405D
:102B2C0018640040006600401C6400400C640040C7
:102B3C001064004008640040B06500401C66004012
:0C2B4C000C080140181002400400014079
:040000050800277553
:00000001FF
